:100000000C9434000C943E000C943E000C943E0082
:100010000C943E000C943E000C943E000C943E0068
:100020000C943E000C943E000C943E000C943E0058
:100030000C943E000C943E000C943E000C943E0048
:100040000C943E000C943E000C943E000C943E0038
:100050000C943E000C943E000C943E000C943E0028
:100060000C943E000C943E0011241FBECFEFD8E04C
:10007000DEBFCDBF0E9440000C9463000C940000D2
:100080008FEF84B987B98AB941E020E931E045B9F9
:1000900084EC99E0F9013197F1F70197D9F715B898
:1000A00048B984EC99E0F9013197F1F70197D9F754
:1000B00018B84BB984EC99E0F9013197F1F7019741
:0A00C000D9F71BB8E4CFF894FFCF86
:00000001FF
