:100000000C9434000C943E000C943E000C943E0082
:100010000C943E000C943E000C943E000C943E0068
:100020000C943E000C943E000C943E000C943E0058
:100030000C943E000C943E000C943E000C943E0048
:100040000C943E000C943E000C943E000C943E0038
:100050000C943E000C943E000C943E000C943E0028
:100060000C943E000C943E0011241FBECFEFD8E04C
:10007000DEBFCDBF0E9440000C9460000C940000D5
:100080008FEF84B961E020E931E052E044E865B9DE
:100090008EEE92E0F9013197F1F70197D9F755B952
:1000A0008EEE92E0F9013197F1F70197D9F745B952
:1000B0008EEE92E0F9013197F1F70197D9F7E7CF8A
:0400C000F894FFCFE2
:00000001FF
