:100000000C9434000C943E000C943E000C943E0082
:100010000C943E000C943E000C943E000C943E0068
:100020000C943E000C943E000C943E000C943E0058
:100030000C943E000C943E000C943E000C943E0048
:100040000C943E000C943E000C943E000C943E0038
:100050000C943E000C943E000C943E000C943E0028
:100060000C943E000C943E0011241FBECFEFD8E04C
:10007000DEBFCDBF0E9440000C940A010C9400002A
:10008000EF92FF920F931F93DF93CF9300D000D096
:10009000CDB7DEB70E946C000E94A1008E010F5FF9
:1000A0001F4F80E9E82E81E0F82E80E00E94AF002B
:1000B000B8014AE050E00E94C500C8010E948400D7
:1000C0008AE090E00E947C0080E197E2F70131979E
:1000D000F1F70197D9F7E9CF1092C50087E6809331
:1000E000C400E1ECF0E0808188618083E2ECF0E024
:1000F0008081866080830895982F8091C00085FF5D
:10010000FCCF9093C6000895AC0120E00BC0809115
:10011000C00085FFFCCF8E2F992787FD9095809397
:10012000C6002F5FFA01E20FF11DE081EE2379F79F
:1001300008958091C00087FFFCCF8091C60090E0B9
:100140000895ECE7F0E0808180648083EAE7F0E0E6
:10015000808187608083808180688083089590910A
:100160007C008F70907F892B80937C0080917A0037
:10017000806480937A0080917A0086FDFCCF209184
:10018000780030917900C9010895FB019F01E8943E
:100190004230C4F04532B4F44A3029F497FB1EF4DF
:1001A000909581959F4F642F77270E94F600805D80
:1001B0008A330CF0895D8193CB010097A1F716F487
:1001C0005DE251931082C9010C94E600DC01FC0150
:1001D000672F71917723E1F7329704C07C916D937B
:1001E00070836291AE17BF07C8F30895AA1BBB1BAB
:1001F00051E107C0AA1FBB1FA617B70710F0A61B27
:10020000B70B881F991F5A95A9F780959095BC0147
:08021000CD010895F894FFCF21
:00000001FF
