:100000000C9434000C943E000C943E000C943E0082
:100010000C943E000C943E000C943E000C943E0068
:100020000C943E000C943E000C943E000C943E0058
:100030000C943E000C943E000C943E000C943E0048
:100040000C943E000C943E000C943E000C943E0038
:100050000C943E000C943E000C943E000C943E0028
:100060000C943E000C943E0011241FBECFEFD8E04C
:10007000DEBFCDBF0E9440000C94AE000C94000087
:10008000219A81E060E040E00E94770025E040E9AD
:1000900051E08091880090918900820F911D90938A
:1000A0008900809388008091880090918900892B35
:1000B00039F080918800909189008F3F910508F078
:1000C000219584EF91E0FA013197F1F70197D9F783
:1000D000E0CF94B5936A94BD85BD862F6FEF0E94E3
:1000E000A20097BD842F0E94A20098BD0895E0E869
:1000F000F0E09081916A9083E1E8F0E0908198606F
:10010000982B9083862F6FEF0E94A200892F90E09A
:100110009093890080938800842F0E94A200892FE9
:1001200090E090938B0080938A000895862F6FEF64
:100130000E94A2009093B300842F0E94A20090938B
:10014000B4000895991B79E004C0991F961708F030
:10015000961B881F7A95C9F780950895F894FFCF6C
:00000001FF
