:100000000C9434000C943E000C943E000C943E0082
:100010000C943E000C943E000C943E000C943E0068
:100020000C943E000C943E000C943E000C943E0058
:100030000C943E000C943E000C943E000C943E0048
:100040000C943E000C943E000C943E000C943E0038
:100050000C943E000C943E000C943E000C943E0028
:100060000C943E000C943E0011241FBECFEFD8E04C
:10007000DEBFCDBF0E9440000C945F000C940000D6
:1000800084B1866084B98091800081608093800013
:100090008091810089608093810080918000806AD6
:1000A000809380008FE790E0909389008093880090
:1000B0008FE390E090938B0080938A00FFCFF894B9
:0200C000FFCF70
:00000001FF
